:020000040000FA
:100000000C94F4000C941E010C941E010C941E011F
:100010000C941E010C941E010C941E010C941E01E4
:100020000C941E010C941E010C941E010C941E01D4
:100030000C941E010C9485280C941E010C941E0136
:100040000C941E010C941E010C940B270C941E01A1
:100050000C94D5260C94AB260C941E010C941E0116
:100060000C941E010C941E010C9455270C941E0137
:100070000C941E010C941E010C941E010C941E0184
:100080000C941E010C941E010C941E01545232005B
:10009000545231004558540041434300504332000C
:1000A00020434800204F480020435900204342008D
:1000B0002043500020524D0020485400204D540051
:1000C000204C540020534400204244002B34002B89
:1000D00033002B32002B31002B30002D31002D321C
:1000E000002D33002042004123002041004723001F
:1000F00020470046230020460020450044230020DE
:10010000440043230020430053594E00465245000B
:10011000534C56004D535400000022002500280087
:100120002B00000020002300260029000000000210
:1001300003000A0B0000000005040908000000008D
:10014000000000000000000000000000000021008E
:10015000240027002A000102040810204080010228
:100160000408102040800102040810204080010291
:10017000040810204080020202020202020204046B
:10018000040404040404030303030303030301013D
:10019000010101010101C800C400C000BC00B80099
:1001A000B400B000AC00A800A400A0009C0098001F
:1001B000940090008C00E100DE00DB00D800D50048
:1001C000D200CF00CC0005010201FF00FC00F900C5
:1001D000F600F300F000ED00EA00E700E4000C0197
:1001E000080114011001AD2811241FBECFEFD0E487
:1001F000DEBFCDBF13E0A0E0B1E0E2E9FBE700E045
:100200000BBF02C007900D92A63DB107D9F720E2BF
:10021000A6EDB3E001C01D92AE39B207E1F710E0E0
:10022000C4EFD0E004C02197FE010E94BE3DC33F51
:10023000D107C9F70E9479290C94C73D0C9400009E
:10024000E0912F1FF091301F309719F08AE69FE15F
:10025000099580916B1F823F09F4BAC090F5803CEC
:1002600009F499C0B8F4803909F44FC040F4E09122
:10027000331FF091341F803809F44BC00895803A41
:1002800009F484C0E091391FF0913A1F803B09F4D2
:1002900040C00895803E09F462C040F4E0913D1FE3
:1002A000F0913E1F803D09F47AC00895803F09F423
:1002B0007DC0E091431FF091441F813F09F49BC032
:1002C00008958A3FC1F1A8F4863F09F499C040F42B
:1002D000E091471FF091481F833F09F48CC00895B7
:1002E000883F09F1E0914F1FF091501F893FF9F0CD
:1002F00008958C3F51F120F18E3F61F1E091571F3D
:10030000F091581F8F3F99F00895E091351FF091BB
:10031000361F309709F479C040916D1F60916C1FB2
:1003200080916A1F0994E0914B1FF0914C1F309708
:1003300009F46BC00994E0914D1FF0914E1FF7CF67
:10034000E091511FF091521FF2CFE091531FF091B5
:10035000541FEDCFE091551FF091561FE8CFE0916B
:100360003F1FF091401F309709F44FC060916D1FFF
:1003700020E8629FB001112460787F7380916C1F28
:100380008F77682B705280916A1F0994E091371F14
:10039000F091381FBECFE0913B1FF0913C1F30978A
:1003A000A1F160916C1F80916A1F0994E091411F37
:1003B000F091421F309749F160916C1F70916D1F51
:1003C0006138710510F060E870E08EE69FE10994F5
:1003D000E091451FF091461F3097B9F080916D1F55
:1003E00020E8829FC001112480789F7320916C1FA8
:1003F0002F77822B0994309741F080916C1F0994DC
:10040000E091491FF0914A1F92CF08959091081FE3
:100410008091071F2FEF3FEF981748F4E92FF0E086
:10042000E951F14E208130E09F5F9093081FC90190
:1004300008959091081F8091071F2FEF3FEF9817A5
:1004400048F4E92FF0E0E951F14E208130E09F5F60
:100450009093081FC9010895982F8091E61E81117D
:10046000FCCF81E08093E61E8093E51E2FEF209362
:10047000E41E27EE3EE13093E31E2093E21E10922D
:10048000E11E2FEF260F2093E01E8093DF1E809148
:10049000DF1E990F982B9093DF1E8091DE1E813016
:1004A000C9F41092DE1E8091DF1E8093BB00809104
:1004B000BC0083FDF8CF85EC8093BC008091E61EE4
:1004C0008130E1F38091E11E861710F46091E11E06
:1004D000862F089585EEF0CF9091DD1E81E0913258
:1004E00008F043C08091E61E8111FCCF8091DC1E94
:1004F00022E02093E61E21E02093E51E2FEF2093BB
:10050000E41E2CEB3EE13093E31E2093E21E10929A
:10051000E11E9093E01E1092DF1E9091DF1E880F67
:10052000892B8093DF1E8091DE1E813029F5109289
:10053000DE1E8091DF1E8093BB008091BC0083FD96
:10054000F8CF85EC8093BC008091E61E8230E1F309
:100550008091E41E8F3F91F08091E41E803281F003
:100560008091E41E803371F084E01092BB1E1092E3
:10057000DD1E1092BA1E089585EEE4CF80E0F5CF1F
:1005800082E0F3CF83E0F1CF81E080938A0A08957F
:1005900081E08093890A089581E08093880A089514
:1005A00008950895AF92BF92CF92DF92EF92FF929B
:1005B0000F931F93CF93DF936C017B018B01040F8B
:1005C000151FEB015E01AE18BF08C017D10759F027
:1005D0006991D601ED91FC910190F081E02DC60169
:1005E0000995892B79F7C501DF91CF911F910F9163
:1005F000FF90EF90DF90CF90BF90AF900895FC01F7
:10060000538D448D252F30E0842F90E0821B930B77
:10061000541710F0CF96089501970895FC01918D1D
:10062000828D981761F0A28DAE0FBF2FB11D5D9620
:100630008C91928D9F5F9F73928F90E008958FEFC2
:100640009FEF0895FC01918D828D981731F0828D76
:10065000E80FF11D858D90E008958FEF9FEF0895CD
:10066000FC01918D228D892F90E0805C9F4F821B31
:1006700091098F73992708958FEF9FE10E943003AE
:1006800021E0892B09F420E0822F0895FC01A48D3C
:10069000A80FB92FB11DA35ABF4F2C91848D90E0A4
:1006A00001968F739927848FA689B7892C93A08987
:1006B000B1898C91837080648C93938D848D981311
:1006C00006C00288F389E02D80818F7D80830895A4
:1006D000EF92FF920F931F93CF93DF93EC0181E092
:1006E000888F9B8D8C8D98131AC0E889F989808139
:1006F00085FF15C09FB7F894EE89FF896083E8896C
:10070000F98980818370806480839FBF81E090E05D
:10071000DF91CF911F910F91FF90EF900895F62EEA
:100720000B8D10E00F5F1F4F0F731127E02E8C8D84
:100730008E110CC00FB607FCFACFE889F9898081C9
:1007400085FFF5CFCE010E944603F1CFEB8DEC0F74
:10075000FD2FF11DE35AFF4FF0829FB7F8940B8FE6
:10076000EA89FB8980818062CFCFCF93DF93EC0150
:10077000888D8823B9F0AA89BB89E889F9898C9189
:1007800085FD03C0808186FD0DC00FB607FCF7CF45
:100790008C9185FFF2CF808185FFEDCFCE010E9445
:1007A0004603E9CFDF91CF91089580E090E0892B57
:1007B00029F00E943C0381110E94000080E090E03B
:1007C000892B49F080E090E0892B29F00E940000FD
:1007D00081110C940000089582508A3088F5E82F2A
:1007E000F0E0EB50FC4F0C94BE3D1D042104FF03D0
:1007F00005042004200409040F0413041904809143
:1008000080008F77809380000895809180008F7D95
:10081000F9CF8091B0008F778093B00008958091D8
:10082000B0008F7DF9CF809190008F7780939000FA
:100830000895809190008F7DF9CF84B58F7784BD26
:10084000089584B58F7DFBCFCF93DF93282F30E0C1
:10085000F901E45DFE4F8491F901EA5AFE4FD4910B
:10086000F901EA58FE4FC491CC23A1F081110E94F6
:10087000EC03EC2FF0E0EE0FFF1FEE5DFE4FA591B5
:10088000B491EC91ED2381E090E009F480E0DF91F8
:10089000CF91089580E090E0FACF1F93CF93DF933C
:1008A000282F30E0F901E45DFE4F8491F901EA5A06
:1008B000FE4FD491F901EA58FE4FC491CC23A9F020
:1008C000162F81110E94EC03EC2FF0E0EE0FFF1FBA
:1008D000E85EFE4FA591B4918FB7F894EC91111199
:1008E00008C0D095DE23DC938FBFDF91CF911F919D
:1008F0000895DE2BF8CFCF93DF9390E0FC01EA5A06
:10090000FE4F24918A589E4FFC0184918823D1F098
:1009100090E0880F991FFC01E45BFE4FA591B49114
:10092000FC01E85EFE4FC591D49161110EC09FB7E6
:10093000F8948C91E22FE0958E238C932881E2230A
:10094000E8839FBFDF91CF9108958FB7F894EC9122
:10095000E22BEC938FBFF6CF8130910539F0880FF1
:10096000991F880F991F05970197F1F708953FB7D1
:10097000F8948091750A9091760AA091770AB091C7
:10098000780A26B5A89B05C02F3F19F00196A11D36
:10099000B11D3FBFBA2FA92F982F8827BC01CD01C9
:1009A000620F711D811D911D42E0660F771F881F28
:1009B000991F4A95D1F708958F929F92AF92BF9257
:1009C000CF92DF92EF92FF924B015C010E94B7043D
:1009D0006B017C010E94B7046C197D098E099F0987
:1009E000683E734081059105A8F321E0821A9108C1
:1009F000A108B10888EEC80E83E0D81EE11CF11CE6
:100A000081149104A104B10429F7FF90EF90DF90C5
:100A1000CF90BF90AF909F908F9008952FB7F8948C
:100A20006091710A7091720A8091730A9091740AB0
:100A30002FBF089585ED8093BC008091BC0084FD9C
:100A4000FCCF1092E61E089520914D0A260F332701
:100A5000331F21323105ECF42091E61EFC0190E0B9
:100A600080E0243069F082E00895A0914D0A219140
:100A7000AC01435D554FA40FB52FB11D2C930196CA
:100A8000861798F380914D0A680F60934D0A80E0B5
:100A9000089581E008950895E091081F8091071F4F
:100AA000E81730F4F0E0E951F14E808190E00895CC
:100AB0008FEF9FEF08958091071F9091081F891B6A
:100AC000990B0895CF92DF92EF92FF920F931F93AD
:100AD000CF93DF937C01CB018A012091BA1E2223A0
:100AE00089F0EB016B01C40ED51ECC15DD0569F054
:100AF0006991D701ED91FC910190F081E02DC70142
:100B00000995F3CF642F0E942405C801DF91CF918E
:100B10001F910F91FF90EF90DF90CF900895CF93AA
:100B2000DF931F92CDB7DEB769832091BA1E2223CF
:100B3000F9F02091DD1E203258F021E030E0FC0178
:100B40003383228390E080E00F90DF91CF9108956E
:100B50008091BB1EE82FF0E0E454F14E9981908320
:100B60008F5F8093BB1E8093DD1E81E090E0ECCF11
:100B700061E0CE0101960E942405F7CFCF93DF9369
:100B8000EC0160E08E810E944D0481E090E00E94C3
:100B9000AC0461E08E810E944D0481E090E00E94EF
:100BA000AC0460E08E810E944D0484E690E0DF9109
:100BB000CF910C94AC04CF92DF92EF92FF920F93FF
:100BC0001F93CF93DF936C017C0187E0E80EF11C4B
:100BD000D0E0C0E0062F10E0B8010C2E02C07595E1
:100BE00067950A94E2F76170F70181917F010E9495
:100BF0004D042196C430D10579F7C601DF91CF911C
:100C00001F910F91FF90EF90DF90CF900C94BE0555
:100C1000CF92DF92EF92FF920F931F93CF93DF93C8
:100C2000EC01F62E642F8C810E944D048D818F3F44
:100C300019F060E00E944D040F2D10E08F8584FFB5
:100C400025C06E0187E0C80ED11CF12CE12CB80143
:100C50000E2C02C0759567950A94E2F76170F60153
:100C600081916F010E944D04FFEFEF1AFF0A88E0A7
:100C7000E816F10461F7CE01DF91CF911F910F913A
:100C8000FF90EF90DF90CF900C94BE05B80184E008
:100C9000759567958A95E1F7CE010E94DB056F2D6A
:100CA000CE01DF91CF911F910F91FF90EF90DF90D8
:100CB000CF900C94DB0541E00E94080681E090E0B3
:100CC000089541E0682F85E19FE10E94080681E0D8
:100CD00090E0089540E0682F85E19FE10C940806BC
:100CE0009091281F691710F06FEF690FE62FF0E061
:100CF000EB5EF04E9489890F80680C946A06CF935E
:100D0000DF93823029F49091241F98609093241FE0
:100D10008093281F1092291F80E480932A1F80E16E
:100D200080932B1F80E580932C1F61E08091191F19
:100D30000E947B0480911A1F8F3F19F061E00E948E
:100D40007B0461E080911B1F0E947B04C5E1DFE111
:100D50009E0125513F418091241F84FD0BC084E0FA
:100D600090E021962817390744F461E08E810E94B3
:100D70007B04EECF88E090E0F4CF80E593EC0E9416
:100D8000AC0460E08091191F0E944D0460E08091E6
:100D90001B1F0E944D0480911A1F8F3F19F060E0C5
:100DA0000E944D048091241F84FD3AC063E085E1D8
:100DB0009FE10E94DB0584E991E10E94AC0463E0BD
:100DC00085E19FE10E94DB0584E991E10E94AC048A
:100DD00063E085E19FE10E94DB0586E990E00E94E7
:100DE000AC0462E085E19FE10E94DB058091241F55
:100DF00080620E946A0684E08093251F8CE00E9436
:100E00006A0681E00E946A0680ED97E00E94AC04C9
:100E100082E08093261F86E0DF91CF910C946A06D2
:100E200080620E946A0684E991E10E94AC0480918C
:100E3000241F80620E946A0686E990E00E94AC044A
:100E40008091241F80620E946A06D0CF0F931F9367
:100E5000CF93DF938B0128E0829FC001112480642F
:100E60000E946A06E801085F1F4F699185E19FE1D2
:100E70000E945B06C017D107C1F7DF91CF911F9188
:100E80000F910895089590E080E0089587FF0AC0CB
:100E90009CE0980F923030F08D3F21F0803F18F4A5
:100EA000807F089580E00895982F9F7E282F2F7CC3
:100EB000203839F0803E29F081E0903C19F080E044
:100EC000089581E00895DC018D919C91DC01ED9104
:100ED000FC910190F081E02D09941F93CF93DF9353
:100EE0002150203118F587FF21C0D42F162FC82F8D
:100EF000622F682B8091591F90915A1F0E9463079F
:100F0000612F6F778091591F90915A1F0E9463073C
:100F1000CF7EC03C59F06D2F6F778091591F909113
:100F20005A1FDF91CF911F910C946307DF91CF91EE
:100F30001F910895645F282F40E580E90C946D07A8
:100F40006D3F48F46A3F10F4683F39F4FC0180813A
:100F500091810C9463076E3FC8F70895813E10F4A9
:100F60000C946D07883F28F0682F89E59FE10C9469
:100F7000A0070895EFE6F0E080818D7F80831092D6
:100F800089001092880010928100109280000895CC
:100F9000E1E8F0E010821092800080818A60808316
:100FA0002091961E3091971E40E6429FC001439FBC
:100FB000900D11246CE370E00E94963D9B0150E07F
:100FC00040E060E874E88EE190E00E94273D3093B5
:100FD000890020938800EFE6F0E0808182608083C2
:100FE00008958F929F92AF92BF92CF92DF92EF922D
:100FF000FF920F931F93CF93DF932091811E89E07F
:1010000095E0289FA001299F500D112441595B4E66
:10101000FA0130E020E001E010E0812C912C540135
:10102000839416A215A2E801022E02C0CC0FDD1F88
:101030000A94E2F790E080E0BC01660F771F640F2E
:10104000751FDB0115966D917C916C237D23672BB9
:1010500081F065A176A175016401082E04C0CC0C55
:10106000DD1CEE1CFF1C0A94D2F76C297D2976A3A7
:1010700065A3019680319105F9F62F5F3F4F3296B7
:101080002031310571F6DF91CF911F910F91FF90C3
:10109000EF90DF90CF90BF90AF909F908F9008958A
:1010A0002091811E30E080910B0B81111AC049E024
:1010B00055E0249FC001259F900D349F900D112471
:1010C00081599B4EFC01E953FB4F40814093080B33
:1010D0008A539B4F40918E1EFC018081481B409398
:1010E000090BE0918D1E49E055E0249FC001259F2A
:1010F000900D349F900D112481599B4EE80FF92FCC
:10110000F11DE751FB4F8081803191F018F48C3054
:1011100049F00895883119F0803241F00895109215
:10112000470C089581E08093470C089582E0FBCF3F
:1011300083E0F9CF8FE090E00E94AC045E985F9A64
:1011400085E090E00C94AC048FE090E00E94AC0449
:101150005F985E9A85E090E00C94AC049091951EA7
:1011600098134AC062526B3108F046C0E62FF0E097
:10117000E454F74F0C94BE3DE608D708D708FC08A6
:10118000DA08E908DA08DD08EC08FC08FC08E008E1
:10119000EF08E008E008F508E308F208FC08F808A2
:1011A000F808F808FC08FC08FC08FC08FB0810928A
:1011B0000004089510920104089510920204089505
:1011C00010920304089510920404089510920504E7
:1011D000089510920604089510920A04089510923A
:1011E00009040895109208040895109207040895C0
:1011F00010920B040895129A0895645F282F40E01E
:1012000080E80C946D078091FF038823B1F1109260
:10121000FF0390910B0A2091811E30E08091941E73
:101220009923A9F0E0910B0A69E075E0269FA001DF
:10123000279F500D369F500D112441595B4EE40FEE
:10124000F52FF11DEC5BFB4F60810C94FD0849E02C
:1012500055E0249FF001259FF00D349FF00D1124DF
:101260009F0121593B4EF901EB53FB4FE081E20F07
:10127000F32FF11DEB5BFB4FE7CF0895FF920F9328
:101280001F93CF93DF93EC018B0181E00E94240434
:10129000F82E80E00E942404880F991F8F29E09186
:1012A0000101E81771F094E0E99FF0011124E82BA7
:1012B000EA53FE4F9081913059F4C00FD11F8093B3
:1012C0000101CE01DF91CF911F910F91FF90089501
:1012D0009F3FA9F79091560B992389F09091901E0A
:1012E000913049F010F0923051F7CA30D1053CF3FB
:1012F000C01BD10BE4CFC031D105D4F7E0CF20978C
:10130000B9F7DDCFCF92DF92EF92FF926B017C01B4
:1013100081E08093BA1E80E58E0D8093DC1E1092D2
:10132000BB1E1092DD1E99278F2D7E2D6D2D89E01D
:101330009FE10E948F056C2D89E09FE1FF90EF9067
:10134000DF90CF900C948F05CF92DF92EF92FF92B7
:101350000F931F93CF93DF93062F282F30E0A0E049
:10136000B5E00E947B3DD0E0C0E010E06B017C0165
:1013700025E0D20EE11CF11C0C171D07E4F06B5D9B
:101380007F4F8F4F9F4F0E94820960E089E09FE16D
:101390000E948F0560E089E09FE10E948F050E9416
:1013A0006C026AE070E080E090E00E94DC0421962C
:1013B000C701B601DBCFDF91CF911F910F91FF9055
:1013C000EF90DF90CF9008954091CE0A5091CF0AD0
:1013D00090E080E020E0BA01082E02C07695679583
:1013E0000A94E2F760FF03C0213031F021E001965A
:1013F0008031910581F780E008952091CE0A3091E7
:10140000CF0A90E080E0A901082E02C056954795CA
:101410000A94E2F740FD04C001968031910599F7E6
:101420000895FC011482138281E06115710509F4AD
:1014300080E080839181891741F09281911107C0EA
:10144000672B11F091E09383828381830895672B4A
:10145000D9F791E09483F8CF80917B0A882361F0DB
:101460009FB7F89420917B0A8091DD03213019F415
:101470008DBB9FBF08958FBF08958EBD00000DB432
:1014800007FEFDCF8EB5089520917B0A222381F0BF
:101490003FB7F89420917B0A213069F42DB3209353
:1014A000DD034DB320917A0A209524232DBB3FBF45
:1014B0008CBD9DBD08953093DD03FACFCF93DF93AC
:1014C000803808F08FE7282F30E0AAEFBFE00E94B5
:1014D0007B3D2FE730E040E050E00E94273DE901EE
:1014E000D06180912D1F90912E1F0E94440A5D981B
:1014F00085E090E00E94AC048D2F0E943D0A8C2F65
:101500000E943D0A5D9ADF91CF910C942C0A809144
:101510002D1F90912E1F0E94440A2B9880E00E945C
:101520003D0A80E00E943D0A2B9A0C942C0ACF932E
:10153000DF93EC01DF7080912D1F90912E1F0E9490
:10154000440A2B988D2F0E943D0A8C2F0E943D0A41
:101550002B9ADF91CF910C942C0AAF92BF92CF922D
:10156000DF92FF920F931F93CF93DF93282F30E0EA
:10157000E901C050DC4F988191115CC0F82E2E5FBC
:101580003E4FF90160830E949A080AEF11E09AE049
:10159000A92E91E0B92E680182B18F7182B982B112
:1015A000F60121916F01F0E22F9F90011124822B0F
:1015B00082B9F50181915F010E945E0A85E090E0A9
:1015C0000E94AC04FEEFCF16F1E0DF0629F70E947F
:1015D000A40882E0C82E81E0D82E82B18F7182B932
:1015E00082B1F80121918F01F0E22F9F9001112427
:1015F000822B82B9F60181916F010E945E0A85E01B
:1016000090E00E94AC04F2E002301F0731F781E065
:1016100090E002C0880F991FFA94E2F70E94970A9F
:1016200088EE93E00E94AC0490E080E00E94970A6C
:1016300081E08883DF91CF911F910F91FF90DF9020
:10164000CF90BF90AF900895E62F642F9091951E94
:1016500041114CC089138AC0E252EB3108F086C0B8
:10166000F0E0EB5CF44F0C94BE3D5F0B500B500B65
:10167000B60B530B620B530B560B650BB60BB60B2D
:10168000590B680B590B590B6E0B5C0B6B0BB60BA4
:10169000710B710B710BB60BB60BB60BB60B740B53
:1016A000109200040895109201040895109202040B
:1016B000089510920304089510920404089510925E
:1016C0000504089510920604089510920A040895DE
:1016D00010920904089510920804089510920704C6
:1016E000089510920B040895129A089589133EC02C
:1016F000E252EB3108F03AC0F0E0EF57F44F0C94AF
:10170000BE3DA70B9C0B9C0BB60B9F0BA90B9F0B15
:10171000A10BAB0BB60BB60BA30BAD0BA30BA30B23
:10172000B10BA50BAF0BB60BB30BB30BB30BB60BD7
:10173000B60BB60BB60BB50B80E00C94AD0A81E08E
:10174000FCCF82E0FACF83E0F8CF84E0F6CF85E0EB
:10175000F4CF86E0F2CF8AE0F0CF89E0EECF88E0E8
:10176000ECCF87E0EACF8BE0E8CF12980895FF92A4
:101770000F931F93CF93DF93082FF92ED62F172F98
:10178000C42F80912D1F90912E1F0E94440A2C98E7
:101790008F2D0E943D0A802F0E943D0A812F0E94BA
:1017A0003D0A8D2F0E943D0A8C2F0E943D0A2C9AE3
:1017B000DF91CF911F910F91FF900C942C0A0F9302
:1017C0001F930E940E050091FB031091FC032091D2
:1017D000FD033091FE03601B710B820B930B66308F
:1017E00071058105910508F44BC00E940E056093B8
:1017F000FB037093FC038093FD039093FE038091A1
:101800002D1F90912E1F0E94440A5C9A80E00E9436
:101810003D0A8093F10380E00E943D0A8093F30328
:1018200080E00E943D0A8093F50380E00E943D0A1B
:101830008093F70380E00E943D0A8093F9035C984F
:101840000E942C0A83B182FB882780F98093EF03E2
:10185000E1EFF3E030E020E090814181941304C097
:10186000D901A253B54F9C932F5F3F4F329625303D
:10187000310591F79091F003891302C08093A10A7A
:1018800080912D1F90912E1F0E94440A5C9A80E047
:101890000E943D0A8093F20380E00E943D0A8093FB
:1018A000F40380E00E943D0A8093F60380E00E94EA
:1018B0003D0A8093F80380E00E943D0A8093FA037A
:1018C0005C980E942C0A83B182FB882780F9809360
:1018D000F0031F910F9108958F929F92AF92BF9244
:1018E0000F931F93CF93DF93CDB7DEB7A1970FB6BA
:1018F000F894DEBF0FBECDBF19A2423008F44AE013
:101900008E010F5D1F4F842E912CB12CA12CA501AF
:1019100094010E94593DE62FB901CA01EA3044F50D
:10192000E05DD801EE938D01232B242B252B79F735
:1019300090E080E0109769F0FD0101900020E9F748
:101940003197AF014A1B5B0BBD0185E19FE10E940E
:10195000D202A1960FB6F894DEBF0FBECDBFDF91C5
:10196000CF911F910F91BF90AF909F908F9008954E
:10197000E95CD7CF009769F0FC0101900020E9F7FE
:101980003197AF01481B590BBC0185E19FE10C94D5
:10199000D20290E080E0089560E084E00E9470064A
:1019A00086E692E00C94BA0C86EC92E00C94BA0CA9
:1019B000BC0190E080E04AE00C946C0C65E085E1AD
:1019C0009FE10E945B068FE692E00E94BA0C809134
:1019D000921E811106C08091961E9091971E0C94C4
:1019E000D80C8BED0E9461068BED0E9461068BED99
:1019F0000C946106EF92FF921F93CF93DF93D091E7
:101A00005B1FD13140F010E0812FDF91CF911F910A
:101A1000FF90EF900895E091591FF0915A1F808137
:101A20009181DC01ED91FC910084F185E02D099517
:101A3000892B49F38091FE1F8E7F8093FE1FE091DA
:101A4000591FF0915A1F80819181DC01ED91FC9129
:101A50000284F385E02D0995C82F8D3FA1F2809176
:101A6000631F9091641F009709F0F7C0C0935E1F39
:101A700010915C1F812F0E9446070E945407882303
:101A800061F0C7FD0AC010935E1FC0935F1F81E025
:101A900090E09093641F8093631FC0915E1F8C2F12
:101AA0000E944607813F09F4A1C0C8F5803B39F088
:101AB00048F4803921F0803A11F0803851F423E065
:101AC00030E096C0803D09F491C0D0F4803C09F428
:101AD0008DC08091FE1F81608093FE1FE091311FB9
:101AE000F091321F309709F009951092641F1092FF
:101AF000631F1092621F1092611F10925C1F83CFB0
:101B0000803EE9F2803F29F720E830E03093621F01
:101B10002093611F10925C1F80936E1F6DC0873FE2
:101B200099F308F05CC0833F09F460C040F2863F3F
:101B300081F680936B1F10926A1F10926C1F109297
:101B40006D1F81E08093EE1F1092641F1092631F3F
:101B50001092621F1092611F80916B1F803939F4BF
:101B600080916D1F811103C080E880936B1F80916D
:101B70006B1F8058813638F480916A1FD81719F08E
:101B800010E0D11103C00E94200111E09091691F63
:101B9000392F317090FF38CF892F8E7F09F434CFE1
:101BA00080916B1F20E8280F213608F02AC1209170
:101BB0006A1FD21719F031E0D11130E096959230BA
:101BC00009F418C1933009F419C1913009F01CCF00
:101BD00040916D1F60916C1F0E94AE0715CF8D3F25
:101BE00008F4A7CF8E3F08F0A4CF73CF22E030E0F7
:101BF0003093621F2093611F2091631F3091641FF7
:101C00004091611F5091621F4150510924173507BF
:101C1000E8F080936B1FCF70CF5FC0936A1F8091F5
:101C20005F1F80936C1F10926D1F81E090E0909376
:101C3000F01F8093EF1F1092641F1092631F109289
:101C4000621F1092611F8093EE1F86CF2F5F3F4F60
:101C50003093641F2093631FD6CEC7FF0CC0CD3FC7
:101C600008F04BC0C83F08F04BC0C03F09F457C054
:101C7000C73F09F454C020915E1FFC01E15DF04EA6
:101C8000203F19F0273F09F073C0C7AFE090611FF4
:101C9000F090621F9701215031098217930708F4D1
:101CA000A7C010915E1F103F19F0173F09F062C0E6
:101CB000C091ED1F80EF8093ED1F80936B1F80E834
:101CC00080936C1F10926D1F10926A1F80E890E045
:101CD0009093F01F8093EF1F81E08093EE1F0E948E
:101CE000200187EF80936E1FC0936F1F82E090E00A
:101CF0009093641F8093631F86CECE3F08F4BBCFC2
:101D0000C0936B1F10926C1F10926D1F10926A1F70
:101D100081E090E09093F01F8093EF1F94CF20918B
:101D20006E1F203F19F0273F09F0D3CE9C012F5F93
:101D30003F4F815D904EFC01C7AF80EF80936B1FDA
:101D400020936C1F30936D1F10926A1F3093F01F09
:101D50002093EF1F81E08093EE1F1092641F10927A
:101D6000631F1092621F1092611F10925C1FF4CECD
:101D7000C7A78CCF812F0E944607C82F80936B1F67
:101D80000E945407882349F1812F8F708F5F8093C1
:101D90006A1F80915F1F80936C1F8091601FF3E02A
:101DA000EF16F10409F080E080936D1F1092641F1C
:101DB0001092631F1092621F1092611F81E0809346
:101DC000EE1FC03B39F060F4C03921F0C03A11F089
:101DD000C03859F610935C1FBFCE10926A1FD9CF3E
:101DE000C03DC1F3C03EB1F3C03C09F0BECFF2CF5D
:101DF00001967ECF332309F407CEEACE311104CE0B
:101E0000E7CEE0E1E80FE03108F0FECDF0E0E55F7D
:101E1000F04F0C94BE3D210F6E0F500F3E0F040D7E
:101E2000040D1B0F040D1B0F040D1B0F1B0F1B0FAD
:101E3000040D1B0F1B0F682F89E59FE10E94A0076F
:101E4000E3CDE0906C1FF0906D1F81E8E816F1047F
:101E500018F090E8E92EF12CCFE2DFE1CE018F52AD
:101E60009F418E159F0508F0CFCD6FAD8091591F12
:101E700090915A1F0E9463072196F0CFC0916C1F6A
:101E800063EF8091591F90915A1F0E9463076C2F36
:101E90006F778091591F90915A1F0E946307B4CDAC
:101EA000C0916D1FA0E8CA9FE001112480916C1FB2
:101EB000C82B62EF8091591F90915A1F0E946307AF
:101EC0006C2F6F778091591F90915A1F0E94630762
:101ED000CC0FCD2FCC1FDD0BD195D9CF60916C1FCE
:101EE000B0E16B9FB00111246077C0916D1FCF707E
:101EF000C62B61EF8091591F90915A1F0E94630772
:101F00006C2FC7CF613208F060E20E942C02109261
:101F1000081F8093071F08950F931F93462F282FA4
:101F200030E0A0E0B5E00E947B3D8B019C01842F56
:101F300090E0B0E0A0E08596A11DB11DBC01CD01EF
:101F4000600F711F821F931F0E9482090E946C0202
:101F500061E070E080E590E00E94820F0E9419022B
:101F60001F910F91089560E20E942C021092081FA9
:101F70008093071F08952F923F924F925F926F9226
:101F80007F928F929F92AF92BF92CF92DF92EF9209
:101F9000FF920F931F93CF93DF9300D01F92CDB783
:101FA000DEB7B82E282F30E0A0E0B5E00E947B3DE0
:101FB0002B013C010E9482090E946C0260E880E5CE
:101FC000860D0E94B30FF12CE12CAA24A39449E0C2
:101FD000C42E45E0D42E0E94190289830E94190262
:101FE0009091811E9A25F701EE0FFF1F9C9D100115
:101FF0009D9D300C1124E20DF31DE159FB4E982EEE
:10200000812CC4012981822B968385830E94190229
:10201000F101E159FB4EFB83EA838F010E0D1F1D79
:10202000F801E752FB4F80830E941902F801E75143
:10203000FB4F80830E941902F801E750FB4F808319
:102040000E941902F801E753FB4F8083FFEFEF1A5C
:10205000FF0A20E1E216F10409F0BDCF0E94190247
:10206000EA81FB8180830E941902EA81FB818183DE
:102070000E941902EA81FB8183830E941902EA818E
:10208000FB8182830E941902EA81FB81EA53FB4FA4
:1020900080830E941902EA81FB81E953FB4F808310
:1020A0000E941902EA81FB81E853FB4F80832B2DAC
:1020B00030E0AAE0B0E00E947B3D6B017C01FFEFC5
:1020C000CF1ADF0AEF0AFF0A27E0CC0CDD1CEE1C5A
:1020D000FF1C2A95D1F7912C812CC701B6010E94D3
:1020E00082090E946C0260E880E58E0D0E94B30FA9
:1020F00084011695102F0027179507952A813B819B
:10210000020F131F38E03983B12CA12C0E94190251
:10211000F501EB5BFF4FE00FF11F80838FEFA81AF3
:10212000B80A90E1A916B10489F7E981E150E98381
:10213000005F1F4FE111E8CFF0E8CF0ED11CE11C8A
:10214000F11C8A94892821F5C301B20160587B4FA4
:102150008F4F9F4F0E9482090E946C0260E870E0DE
:1021600080E590E00E94820F1B821A828A819B8107
:1021700001969B838A838138910571F00E94190230
:10218000EA81FB81E20DF31DED54F74E8083EECF23
:1021900088248394912CA1CF0F900F900F90DF9102
:1021A000CF911F910F91FF90EF90DF90CF90BF9054
:1021B000AF909F908F907F906F905F904F903F90E7
:1021C0002F900895CF92DF92EF92FF92CF93DF93FB
:1021D0006C01990FEE08FF08F7FE17C08DE20E9410
:1021E0006106EC0166277727CB016C197D098E0902
:1021F0009F094AE00E946C0C8C0F9D1FDF91CF91CC
:10220000FF90EF90DF90CF9008954AE0C701B601AC
:10221000DF91CF91FF90EF90DF90CF900C946C0CFA
:10222000AF92BF92CF92DF92EF92FF920F931F93E4
:10223000CF93DF9390E0B0E0A0E06C017D0120EA55
:10224000C20ED11CE11CF11C8AE0CC0CDD1CEE1C82
:10225000FF1C8A95D1F7C3E6DCE093E6A92E90E156
:10226000B92EC701B6010E9482090E946C0260E289
:1022700080E58E0D0E942C021092081F8093071F8C
:1022800001E010E00F5F1F4F0238110539F00E9486
:102290001902FE01E00FF11F8083F4CF80E8C80E21
:1022A000D11CE11CF11CC058DF4FAC16BD06C9F6AD
:1022B00080916110909162109093640C8093630CF4
:1022C000DF91CF911F910F91FF90EF90DF90CF9012
:1022D000BF90AF9008952F923F924F925F926F926E
:1022E0007F928F929F92AF92BF92CF92DF92EF92A6
:1022F000FF920F931F93CF93DF93CDB7DEB7CC54EC
:10230000D1090FB6F894DEBF0FBECDBF8091CE0AC3
:102310009091CF0A9093140C8093130C8091620CCF
:10232000882349F080919C1E882329F010929C1EDE
:1023300081E08093770180917801909179010597F0
:1023400011F01092A80A80919C1E811102C0109277
:102350009B1E8091990A882359F08091901E8F5F6F
:10236000843008F03DC18093901E81E08093770116
:102370008091B00A811104C080918A0A882389F172
:1023800081E08093620C109275011092840A109281
:10239000330110923201ADE0BAE090E080E011E04C
:1023A000FC01EE0FFF1FEE5EFE4F11821082FC015A
:1023B000E35EF54F10821D9301968031910581F700
:1023C00010920C0A1092520C10920B0A6AEF89E5D7
:1023D0009FE10E94A007109A10930A0A119A109385
:1023E000090A80914F0C882321F08091560B882395
:1023F00041F08091890A811104C08091880A882364
:10240000C9F02091941E40E06BE780EB0E946D07BD
:102410008091890A882309F4E6C01092520C8091B9
:10242000520C8F5F8093520C813009F4E5C08230EA
:1024300009F4EFC080914B0B6090A01E662009F458
:102440003FC3882379F084E090E0909379018093F2
:10245000780181E08093770110926E1410929C1E97
:102460001092200B8091260B882309F4E4C0609120
:10247000811E70E015E1E12E14E0F12E89E095E077
:10248000689F9001699F300D789F300D1124F901EC
:10249000E85CF64E09ED202E08E0302E8901015946
:1024A0001B4E580110E000E090E080E0A9014C5480
:1024B0005B4E2A019501200F311FD90115962D91F0
:1024C0003C91D7012D933D937D014089D1015096D8
:1024D0004C93509740A190964C93909740A9D096DA
:1024E0004C9320813196D1012D931D019201280F2B
:1024F000391FAC014B5A5B4FB0E17B2ED901DD9007
:102500009D01DA01DD92AD014D01BFEF8B0E911CF3
:102510006901AFEFCA0ED11CD601DC90D401DC9268
:102520004A01B1E08B1ABEEF9B0A6901A1E0CA1A09
:10253000AEEFDA0AD601DC90D401DC924A01B1E0B8
:102540008B1ABDEF9B0A6901A1E0CA1AADEFDA0A46
:10255000D601DC90D401DC927A947110CFCF4096F2
:102560000E5F1F4F8115B1E09B0709F0A3CF89E0F3
:1025700095E0689FF001699FF00D789FF00D1124A0
:10258000E159FB4E80818093100481818093110476
:10259000838180931304828180931204DF01AA5304
:1025A000BB4F8C918093D60811968C918093D7085D
:1025B00012972C912093D508E853FB4F808180938C
:1025C000D808A5E5B8E090E080E08217A0F5FC010E
:1025D000EB5BFB4FEA0DFB1D30813D930196F5CF80
:1025E0001092901EC2CE8091880A882309F417CFDA
:1025F00081E08093520C13CF809375011092620C8E
:102600006CEF89E59FE10E94A007109810920A0ADA
:1026100011CF1092750111E01093620C1092520CC0
:102620001092840A6BEF89E59FE10E94A007109A3F
:1026300010930A0AFFCE8091A50A882309F4B2C03C
:10264000A090811EB12C05E114E089E095E0A89EE0
:10265000B001A99E700DB89E700D1124FB01EC58BD
:10266000FB4E7F01E9EDF8E09B01285C364E190135
:1026700090E080E0AB014C545B4E2A01D8012D91D3
:102680003D918D01D7012D933D937D014089D1016D
:1026900050964C93509740A190964C93909740A998
:1026A000D0964C9320813196D1012D931D019C0130
:1026B0002B5A3B4FA201480F591FA0E17A2ED90196
:1026C000DD909D01DA01DD92AD014D01BFEF8B0E72
:1026D000911C6901AFEFCA0ED11CD601DC90D40168
:1026E000DC924A01B1E08B1ABEEF9B0A6901A1E0BE
:1026F000CA1AAEEFDA0AD601DC90D401DC924A01A4
:10270000B1E08B1ABDEF9B0A6901A1E0CA1AADEFD7
:10271000DA0AD601DC90D401DC927A947110CFCF22
:1027200040968115B1E09B0709F0A8CF89E095E0BC
:10273000A89EF001A99EF00DB89EF00D1124E1595C
:10274000FB4E8091100480838091110481838091DD
:1027500013048383809112048283DF01AA53BB4F49
:102760008091D6088C9311968091D7088C932091F4
:10277000D50812972C93E853FB4F8091D80880839B
:10278000A5E5B8E090E080E0821748F43D91FC01B7
:10279000E60FF71FEC54F74E30830196F5CF81E03A
:1027A0008093620B8091AC1E8823B9F08091620CFB
:1027B000811113C081E080939C1E80919B1E8F5FCE
:1027C00080939B1E1092901E833020F010929B1ECF
:1027D00010929C1E81E08093770180907801909008
:1027E0007901C4010397029708F09CC58091130CEE
:1027F0009091140C009711F41092060A0091560B58
:10280000002359F0892B49F081E08093050A10924A
:102810006E140E94FD0980938D1E8091050A882305
:1028200049F080918F0A882329F081E08093770115
:102830001092050A002351F080915A0B882331F041
:102840008CE080938D1E81E080937701662051F0AB
:102850008091320B882331F08DE080938D1E81E0D2
:102860008093770110918D1EE12EF12CA090811E96
:10287000CA2CD12C7090170C772009F44FC080918E
:102880006E1481114BC0F4E08F16910409F446C018
:102890008091620C882309F441C0D701A25FB44F34
:1028A0008C9149E055E0C49E9001C59E300DD49EA8
:1028B000300D1124F701EE0FFF1FE20FF31FE15956
:1028C000FB4E41E050E060E070E004C0440F551F53
:1028D000661F771F8A95D2F7409550956095709541
:1028E000858196814823592356834583EC91C701FE
:1028F00044E0880F991F4A95E1F7820F931F815991
:102900009B4EE80FF92FF11DEB5BFF4FD701AE5F38
:10291000BD4F8C91808381E08093620B8091180C75
:102920008823B9F180916E14811133C024E082169E
:10293000910479F18091620C81112BC089E095E0BE
:10294000C89E9001C99E300DD89E300D1124F9010A
:10295000E85CF64E90E080E041E06FE058E1DC0199
:10296000AA0FBB1FA20FB31FA159BB4E16961C92F4
:102970001E92159740AB608B50A311920196803147
:10298000910569F783E0809376014093620B409351
:1029900077018091851E811104C08091861E882355
:1029A00019F081E0809377018091440C882399F19C
:1029B00080916E1481112FC08091470C91E090930B
:1029C00077019093620B8F5F843009F470C380931A
:1029D000470CE091470CF0E0EA50FE4F408189E05F
:1029E00095E0662009F466C3C89E9001C99E300D2B
:1029F000D89E300D1124F901E159FB4E418390E03E
:102A000080E0FC01E20FF31FE85AF64E4083019686
:102A100080319105B1F789E095E0C89EF001C99E2B
:102A2000F00DD89EF00D1124EE0DFF1DE85AF64E64
:102A30008081E091470CF0E0EA50FE4F90818917C9
:102A400041F0803109F451C308F041C38C3009F4DE
:102A500048C3B090380CBB2009F460C380918E0A43
:102A6000882309F45BC30E94FD0949E055E0C49E38
:102A70009001C59E300DD49E300D1124611037C3D6
:102A8000D901A159BB4EEA0EFB1EF701E752FB4FDD
:102A900080831C924091040A90E080E0FC01E20FE8
:102AA000F31FE85BF64E50816C91651710F45C9350
:102AB000482F01968031910589F74093040A29C374
:102AC0009091C60A992399F020917801309179016B
:102AD0002130310509F09AC01092790110927801E5
:102AE00091E09093770110926E1410929C1E909139
:102AF000BB0A9923B9F020917801309179012330F4
:102B0000310509F08AC022E030E03093790120934A
:102B1000780191E09093770110926E1410929C1EB0
:102B20001092200B882309F4FFC081E08093620B90
:102B30002091811E30E08091560B882309F482C0D9
:102B400080918D1E90E0DC0104E0AA0FBB1F0A9566
:102B5000E1F749E055E0249FF001259FF00D349FF7
:102B6000F00D1124AE0FBF1FAC54BB4E6C91DC01B5
:102B7000AA0FBB1FAE0FBF1FA159BB4E15964D919B
:102B80005C9116978A011695079540FF49C0E80F9A
:102B9000F91FE85BF64E708141E050E002C0440F3F
:102BA000551F7A95E2F7402B512B16965C934E9366
:102BB0001597E9E0F5E02E9FA0012F9F500D3E9F55
:102BC000500D1124FC01E40FF51FE85BF64EE08187
:102BD000F0E014E0880F991F1A95E1F7840F951F14
:102BE00081599B4E30E020E0DF01AB5BBF4F7D01A0
:102BF000E80EF91EE217F3070CF496C0E217F3078C
:102C0000A1F4D7016C932F5F3F4FF4CF21E030E068
:102C1000309379012093780163CF23E030E075CFC2
:102C200016961C930E931597C4CFAC01420F531FF9
:102C30008A010A5B1F4FD8017C914B5B5F4FDA0121
:102C40007C93E1CF89E095E0289FA001299F500D5A
:102C5000389F500D1124FA01E159FB4E1F01CF019D
:102C600067EF7AEF269F2001279F500C369F500C6C
:102C7000112470E060E04A0105E4800E911CAA2452
:102C8000A394B12C9C01240D351D280D391DD901AB
:102C90007C90458156818A01169507959B012752A4
:102CA0003B4F40FF28C0A101420F531FDA014C9156
:102CB000D50102C0AA0FBB1F4A95E2F7AD01402B18
:102CC000512B56834583220D331DD9014C9150E081
:102CD00030E020E07A01B5E4EB0EF11CE80EF91EBD
:102CE00042175307CCF04217530741F4D7017C92A7
:102CF0002F5F3F4FF5CF16830583E5CF8C01020F81
:102D0000131F6801B6E4CB0ED11CD601DC900B5B1F
:102D10001F4FD801DC92ECCF6F5F7F4F3296409609
:102D20006031710509F0AECF80913D0B882309F425
:102D300078C081E08093620B0091811E10E0809149
:102D4000560B882309F4ACC080918D1E90E0DC0105
:102D5000AA0FBB1F49E055E0049F9001059F300D6D
:102D6000149F300D1124FD01E20FF31FE159FB4EBA
:102D7000E580F680FC01E20FF31FE85BF64EC080B1
:102D80004C2D50E0BC01E4E0660F771FEA95E1F7B7
:102D9000FB01E20FF31FE40FF51FEC54FB4ED08054
:102DA0009701220F331F02C0F694E794CA94E2F70A
:102DB000E0FE12C0FA013196812C912C54018394CB
:102DC00004C0880C991CAA1CBB1CEA95D2F78094FD
:102DD0009094216028213921E9E0EE2EE5E0FE2ED5
:102DE0000E9DF0010F9DF00D1E9DF00D1124AE0FF4
:102DF000BF1FA159BB4E16963C932E931597A4E086
:102E0000880F991FAA95E1F78E0F9F1FE60FF71FF6
:102E1000EC54FB4E41505109A8F5D0824F3F540766
:102E2000C9F78091320B882359F08091350B8F5F61
:102E30008093350B813009F4E1C0823009F4FEC083
:102E40008091A50A882359F08091A80A8F5F80930A
:102E5000A80A813009F411C1823009F41DC18091A2
:102E6000780190917901059711F01092A80A80914C
:102E70009C1E811102C010929B1E8091AD1E81117B
:102E8000A9CCABCC9A01280F391F21593B4ED9014F
:102E9000AB5BBF4F6C912A5B3F4FD9016C93BECFA8
:102EA00029E035E0029FC001039F900D129F900D15
:102EB00011248C0101591B4EB801FE0131969E016F
:102EC0002F5C3F4F23963FAF2EAF2397AE014F5D50
:102ED0005F4F29965FAF4EAF2997280130E020E081
:102EE0002B969FAF8EAF2B97DB0115964D915C9182
:102EF00051834083D901A752BB4FA00FB11FEC9063
:102F00002396AEADBFAD2397ED922396BFAFAEAF84
:102F100023978E2D90E01901A4E0220C331CAA9572
:102F2000E1F72B96AEADBFAD2B97A20DB31DA80F49
:102F3000B91FAC54BB4EFC902996AEADBFAD2997DE
:102F4000FD922996BFAFAEAF29976A01CC0CDD1C6C
:102F500002C056954795EA94E2F740FF3EC0AC01A7
:102F60004F5F5F4F812C912C5401839404C0880CD7
:102F7000991CAA1CBB1C4A95D2F727968CAE9DAE15
:102F8000AEAEBFAE2797D401A095B095A601416023
:102F90004A235B235183408340815181DB01169694
:102FA0005C934E931597D101AB5BBF4F5D01A00EB3
:102FB000B11E0197A8F4D501FC928F3F9807C9F77D
:102FC0002F5F3F4F6E5F7F4F329640E1440E511CA2
:102FD0002031310509F088CF24CFD182C082DCCFE7
:102FE000A201480F591F6A01B5E4CB0ED11CD601CE
:102FF000EC904A5B5F4FDA01EC92DFCF81E191E127
:1030000090931A09809319094091811E29E035E0B7
:10301000429FC001439F900D112481599B4EFC019A
:10302000EB56FF4F2FE7208334962EE12083349612
:1030300020838F559F4FDC012C9302CF10921A09E9
:10304000109219094091811E29E035E0429FC0018C
:10305000439F900D112481599B4EFC01EB56FF4F6D
:1030600020E5208334962083349620838F559F4F0C
:10307000FC0120831092350BE3CE80917801909172
:1030800079019093080A8093070A85E090E0909375
:10309000790180937801E3CE8091070A9091080A24
:1030A00090937901809378011092A80AD8CE10925B
:1030B000470C8FCCC89EF001C99EF00DD89EF00D34
:1030C0001124EE0DFF1DE85AF64E4083A4CC883142
:1030D00029F0803209F0BDCC82E004C01092470C88
:1030E000B8CC81E08093470CB4CC83E0FBCFF901EE
:1030F000E159FB4E8083A90130E020E0FA01E20FA4
:10310000F31FE85BF64E80832F5F3F4F2031310580
:10311000A9F781E0809377018093620B33E08316F7
:10312000910409F019C380918F0A81111092060A47
:10313000B110AEC00111ACC080916E148111A8C055
:103140006091620C662309F418C28A2C912CA12F7D
:10315000B0E0AD01440F551F2D965FAF4EAF2D97D8
:1031600089E095E0889EA001899E500D989E500DA3
:1031700011242D96EEADFFAD2D97E40FF51FE1590B
:10318000FB4E85819681E091CE0AF091CF0A2B9675
:10319000FFAFEEAF2B976090620BE3E6FBE09D0183
:1031A00074E0220F331F7A95E1F7420F531F415904
:1031B0005B4E30E020E071E004EF702E710E8D0167
:1031C0000A511E4F29961FAF0EAF2997C12CD12C43
:1031D0007601C3948D010E5F1D4F23961FAF0EAF76
:1031E000239702E0A3E0AA2EB22E13822B96AEAD57
:1031F000BFAD2B97022E02C0B695A7950A94E2F7B1
:103200001A2F117010833180131519F1328031108B
:103210001FC0A0FF1DC07383DC01022E02C0B69543
:10322000A7950A94E2F7A170BB270F2EF3E02F2E8B
:10323000F02D271408F453C1AB2B09F419C10683F0
:10324000A681A13009F416C1A23009F432C1662E5C
:1032500011832F5F3F4F3B962031310529F6609255
:10326000620B29E035E0829EF001839EF00D929E74
:10327000F00D11242D962EAC3FAC2D97E20DF31DD1
:10328000E159FB4E9683858380918E1E8093070BB8
:103290008091030A8823F9F09091080B9923D9F0C3
:1032A00080910A0B8F5F981708F434C280930A0B41
:1032B0008091090B90910A0B890F8093070B9091D5
:1032C0008E1E891719F081E08093E90A1092030A93
:1032D00081E0809377018091A01E882319F180916D
:1032E0003D0B8823F9F080918D1E90E04091811E66
:1032F00050E029E035E0429FF001439FF00D529FDE
:10330000F00D1124E80FF91FE85CF64E208131E042
:10331000320F6091560B3083662309F4FEC12330CF
:1033200008F01082809178019091790182309105A6
:1033300009F022C580918F0A81111092060A8091AE
:10334000130C9091140C892B11F18091250B009195
:103350008E1E882309F488C40E94FD09873008F076
:1033600087E080938F1E80918F1E8295807F902FA3
:103370009F70890F8093070B1092080B081739F084
:103380008091620C811103C081E08093E90A8091F1
:10339000030A882321F08091080B8111C0C4809119
:1033A000030A8111D9C48091D1098823F1F01092C8
:1033B000D10911E0109377011092200B009167144E
:1033C000802F0E94101100936814E0916914F0910D
:1033D0006A14ED59F34F82818093070B90918E1EF2
:1033E000891709F4B9C61093E90A8091200B882344
:1033F00009F4B2C680915C0B882309F4ADC6109223
:10340000200BC09068149091630C8091640C909391
:10341000611080936210D12CF12CE12CE0EACE0EE9
:10342000D11CE11CF11C9AE0CC0CDD1CEE1CFF1C35
:103430009A95D1F703E61CE023E6A22E20E1B22EF6
:10344000C701B6010E94820988248394912CFFEF62
:103450008F1A9F0A22E88216910409F45BC6F801CC
:10346000E80DF91D608189E09FE10E948F05EFCF93
:103470007683E6CE1601270104C0220C331C441CBF
:10348000551CBA94D2F727962CAE3DAE4EAE5FAE29
:10349000279782299329D901AB5BBF4F2D01440E99
:1034A000551E2996AEADBFAD2997BC90D201BC92F6
:1034B000CECE16821601270104C0220C331C441CF8
:1034C000551CBA94D2F727962CAE3DAE4EAE5FAEE9
:1034D0002797D101A095B0958A239B23B8CEAB2B1B
:1034E000A1F1D901AB5BBF4FA40FB51F6C90239620
:1034F000AEADBFAD23975C90561428F5A682A68189
:10350000A23049F2A33019F1A13009F0A0CE160182
:10351000270104C0220C331C441C551CBA94D2F75A
:1035200027962CAE3DAE4EAE5FAE279782299329EB
:10353000D901AB5BBF4F2D01440E551E2396AEAD96
:10354000BFAD2397B2CF0683DACF7683D8CF16826A
:103550001601270104C0220C331C441C551CBA94CC
:10356000D2F727962CAE3DAE4EAE5FAE2797D10177
:10357000A095B0958A239B23DBCF80918D0A882369
:1035800009F486CE8091250B8823D1F00E94FD0995
:10359000873008F087E080938F1E90918E1E809177
:1035A0008F1E8295807F292F2F70820F8093070BAB
:1035B000981719F081E08093E90A1092080B68CE01
:1035C0000E94E409882309F479C01092030A0E943A
:1035D000E409082F0E94FD09081B0093080B0E94B4
:1035E000FD0920918F1E2295207F122F180F109316
:1035F000090B1093070B81E08093060A80930B0B55
:1036000080915A0B882309F44EC010920B0BF12CB9
:10361000E12CA02EB12CAE14BF04B4F0D12EDE0CE0
:1036200061E08D2D0E948C0FC82E882349F060E048
:103630008D2D0E948C0F6C2DD81A8D2D0E94A409FF
:103640002FEFE21AF20AE7CF212F30E0A0E0B5E039
:103650000E947B3D6B017C0135E2C30ED11CE11C55
:10366000F11C912C812CC701B6010E948209682DA2
:1036700089E09FE10E948F05602F89E09FE10E9411
:103680008F050E946C026AE070E080E090E00E948A
:10369000DC044FEF841A940A55E0D50EE11CF11CAE
:1036A000A814B90404F790918E1E8091070B981707
:1036B00009F4EECD81E08093E90AEACD8091060A13
:1036C0008111F1CF10920B0B0E94FD0990918F1E7A
:1036D0009295907F890F8093070B49E055E0A49E57
:1036E0009001A59E300D112421593B4EF901EA535A
:1036F000FB4F108190915A0B992349F029533B4F6E
:10370000D9016C91811B0E94A4091092080B10939F
:103710000A0BC9CF10920A0BCBCD233008F01082D0
:1037200069E075E0469F9001479F300D569F300D30
:103730001124820F931FFC01E85CF64E408190E05B
:1037400080E0FC01E20FF31FE85CF64E4083019637
:1037500080319105B1F7E6CDB4E08B16910409F004
:10376000E1CD772059F1E12FF0E0DF01A25FB44F06
:103770002C91EE0FFF1F49E055E0A49EC001A59ECD
:10378000900D1124E80FF91FE159FB4E81E090E004
:10379000A0E0B0E004C0880F991FAA1FBB1F2A95A4
:1037A000D2F780959095A095B0952581368182239A
:1037B00093239683858381E08093620BB11031C19E
:1037C00001112FC143E6E42E4BE0F42ED12CC12C85
:1037D00088248394912C412C512C3201439470E520
:1037E000372E09E015E0EC2D8091130C9091140C0C
:1037F0000C2C02C0969587950A94E2F7282F217029
:10380000D7012C9311963C911197231709F4FAC014
:1038100012962C912111F6C080FFF4C0EC3040F5D7
:10382000F0E0E95EF34E8091620C0C94BE3D231CE7
:10383000421D581D6E1D841DC61DDC1D1E1EF21D61
:10384000081EB01D9A1D882389F0E0910C0A209172
:10385000811E209FC001219F900D112481599B4EF4
:10386000E80FF92FF11DEB5BFF4F30823092F30927
:103870005E985F9A8091FB090E945E0A90910A0A05
:10388000946E8091090A880F892B82B98091FC0976
:103890000E945E0A90910A0A94668091090A880F34
:1038A000892B82B98091FD090E945E0A90910A0AD3
:1038B000946A8091090A880F892B82B98091FE0948
:1038C0000E945E0A90910A0A94628091090A880F08
:1038D000892B82B984E690E00E94AC045E9A5F98DE
:1038E0008091F3090E945E0A90910A0A946E809179
:1038F000090A880F892B82B98091F4090E945E0A17
:103900008091090A880F90910A0A9466892B82B9DE
:103910008091F5090E945E0A8091090A880F9091B2
:103920000A0A946A892B82B98091F6090E945E0A7C
:103930008091090A880F90910A0A9462892B82B9B2
:103940008091F7090E945E0A8091090A880F909180
:103950000A0A946C892B82B98091F8090E945E0A48
:103960008091090A880F90910A0A9464892B82B980
:103970008091F9090E945E0A8091090A880F90914E
:103980000A0A9468892B82B98091FA090E945E0A1A
:103990008091090A880F90910A0A9460892B82B954
:1039A000F601EA52FE4F8081A82EB12CF40102C02C
:1039B000EE0FFF1F8A95E2F7CF010E94970A8091D0
:1039C000620C8823B9F080910C0AF501EE0FFF1FFD
:1039D000ED52F64FA301920104C0220F331F441F82
:1039E000551F8A95D2F7C90120813181822B932BF3
:1039F0009183808380ED97E00E94AC0490E080E0AA
:103A00000E94970AD7018C9111968C93BFEFCB1A25
:103A1000DB0AEBE0EE0EF11CF0E1CF16D10409F069
:103A2000E2CE4091D209442309F47CCC9091620B00
:103A3000A3EDB9E08091811E29E035E0829F8001ED
:103A4000839F100D112430E020E06D917D91611570
:103A5000710581F0F901E00FF11FE159FB4E8581FD
:103A60009681862B972B96838583FD013297118251
:103A70001082942F2E5F3F4F2032310531F7909303
:103A8000620B50CC882389F0E0910C0A2091811EB2
:103A9000209FC001219F900D112481599B4EE80F5A
:103AA000F92FF11DEB5AFF4F30823092F409E0CE2E
:103AB000882389F0E0910C0A2091811E209FC0018B
:103AC000219F900D112481599B4EE80FF92FF11D74
:103AD000EB59FF4F30823092F509CACE882389F026
:103AE000E0910C0A2091811E209FC001219F900D22
:103AF000112481599B4EE80FF92FF11DEB58FF4F10
:103B000030823092F609B4CE882389F0E0910C0A15
:103B10002091811E209FC001219F900D1124815969
:103B20009B4EE80FF92FF11DEB57FF4F308230927B
:103B3000F7099ECE882389F0E0910C0A2091811E1E
:103B4000209FC001219F900D112481599B4EE80FA9
:103B5000F92FF11DEB50FF4F30823092FE0988CED5
:103B6000882389F0E0910C0A2091811E209FC001DA
:103B7000219F900D112481599B4EE80FF92FF11DC3
:103B8000EB51FF4F30823092FD0972CE882389F0CD
:103B9000E0910C0A2091811E209FC001219F900D71
:103BA000112481599B4EE80FF92FF11DEB56FF4F61
:103BB00030823092F8095CCE882389F0E0910C0ABB
:103BC0002091811E209FC001219F900D11248159B9
:103BD0009B4EE80FF92FF11DEB55FF4F30823092CD
:103BE000F90946CE882389F0E0910C0A2091811EC4
:103BF000209FC001219F900D112481599B4EE80FF9
:103C0000F92FF11DEB53FF4F30823092FB0930CE7C
:103C1000882389F0E0910C0A2091811E209FC00129
:103C2000219F900D112481599B4EE80FF92FF11D12
:103C3000EB52FF4F30823092FC091ACE882389F074
:103C4000E0910C0A2091811E209FC001219F900DC0
:103C5000112481599B4EE80FF92FF11DEB54FF4FB2
:103C600030823092FA0904CE0E94E409182F88238A
:103C7000B1F10E94FD09181B1093080B0E94FD0969
:103C800090918F1E9295907F890F8093090B80935E
:103C9000070B8091620C882329F08091911E81117D
:103CA00010930A0B81E08093060A80930B0B80919E
:103CB000070B081709F46BCB80918E0A882309F44F
:103CC00066CB8091911E882309F45ECB8091620CB3
:103CD000882309F459CB81E08093770158CB8091F8
:103CE000060A8111E4CF10920B0B1092080B0E9470
:103CF000FD0990918F1E9295907F890F8093070BFD
:103D00002091811E89E095E0289FF001299FF00D08
:103D10001124EB5CF64E808180930A0BC8CF909102
:103D20000A0B891710F410920A0B90910A0B8091DC
:103D3000090B890F8093070B9F5F90930A0B90915B
:103D40008E1E891719F081E08093E90A1092030A08
:103D500081E08093770127CB8091080B811123CBE1
:103D600090918E1E8091070B981719F081E0809337
:103D7000E90A1092030A17CB8130910509F075C149
:103D800080918E0A8823E1F01091250B0E94FD0995
:103D9000112309F4BBC0873008F087E080938F1EA1
:103DA00090918E1E80918F1E8295807F292F2F707B
:103DB000820F8093070B981719F081E08093E90A2E
:103DC00020912E0C222309F18091691490916A149C
:103DD0000197813004E0900708F0B0C090936A1416
:103DE00080936914E0916914F0916A14ED59F34FCE
:103DF00082818093070B90918E1E891719F081E0C4
:103E00008093E90A81E0809377014091230C442359
:103E100009F18091691490916A140196813014E03F
:103E2000910708F090C090936A1480936914E09110
:103E30006914F0916A14ED59F34F82818093070B56
:103E400090918E1E891719F081E08093E90A81E034
:103E5000809377018091180C882391F010926A1456
:103E6000109269148091650C8093070B90918E1EBF
:103E7000891719F081E08093E90A81E08093770146
:103E80008091A01E882309F4B5C08091590C882325
:103E9000C9F08091630C9091640C90936A148093A4
:103EA00069148D59934FDC0112968C918093070B06
:103EB00090918E1E891719F081E08093E90A81E0C4
:103EC00080937701222309F45BC02091630C309129
:103ED000640C2115310509F453C0E0916914F09187
:103EE0006A14B90161507109CF010196E617F7070D
:103EF00008F065C0ED59F34F3196DF01A356BC4081
:103F0000A217B30718F553815283F6CF9091590C3D
:103F1000992341F08093671481E08093D1098093C5
:103F200077014ECF90918F1E9295907F890F80934D
:103F3000070B90918E1E891340CF42CF10926A14C6
:103F4000109269144FCF80E094E06DCF90936A1483
:103F5000809369147093640C6093630C8D59934F34
:103F6000FC0182818093070B90918E1E891719F0B6
:103F700081E08093E90A81E08093200B80937701B0
:103F80004423C1F12091691430916A14E091630CCB
:103F9000F091640CAF014F5F5F4FC9010197241787
:103FA000350708F05AC0EB59F34F3197BF016356FC
:103FB0007C406217730740F061816283F6CF909373
:103FC0006A1480936914DCCF90936A148093691407
:103FD00020918E1E8D59934FDC0112962C93509395
:103FE000640C4093630C2093070B81E08093200BBB
:103FF0008093770180915B0B882309F4D4C9809169
:10400000D0098111D0C98091691490916A143091BE
:104010008E1EFC01ED59F34F328301968130B4E0DE
:104020009B0700F590936A1480936914809169143A
:1040300090916A14FC01ED59F34F22812093070BF4
:10404000321719F021E02093E90A9093640C8093D1
:10405000630C81E08093200B7CCE90936A14809354
:104060006914C8CF80E094E0DDCF892B09F09BC9AB
:104070008091030A882349F18091691490916A1410
:10408000019690936A14809369142091630C309187
:10409000640C8217930720F010926A14109269142E
:1040A000E0916914F0916A14ED59F34F8281809385
:1040B000070B90918E1E891719F081E08093E90A11
:1040C0001092030A81E0809377018091180C882375
:1040D00091F010926A14109269148091650C80938B
:1040E000070B90918E1E891719F081E08093E90AE1
:1040F00081E0809377018091130C9091140C892BAF
:1041000009F451C90E94FD098093671481E08093EE
:10411000D1091FCE0E946C026AE070E080E090E05E
:104120000E94DC0430E8C30ED11CE11CF11C0058D5
:104130001F4FA016B10609F083C90E94CC0C81E084
:104140008093D0090E940E056093CC097093CD092D
:104150008093CE099093CF090E940E050091CC095F
:104160001091CD092091CE093091CF09601B710BC0
:10417000820B930B693E73408105910510F01092FC
:10418000D0098091E90A882381F01092E90A11E0B0
:10419000109377011092210B0091070B802F0E9442
:1041A000BB0F00938E1E1093CB098091CB098823FF
:1041B00099F01092CB0983E08093760110926D14F0
:1041C0000E9403098091811E91E089278093811EBE
:1041D0000E9450080E94F1078091620B882339F0F9
:1041E0001092620B0E94F10781E08093210B809175
:1041F000210B882309F43AC180915A0B882309F4D2
:1042000035C18091560B811131C11092210BB090B4
:104210008E1E2B2D30E0A0E0B5E00E947B3D2B01EF
:104220003C010E948209F12CE12CB9E0CB2EB5E0D3
:10423000DB2E8091811EF701EE0FFF1F8C9D800108
:104240008D9D100D1124E00FF11FE159FB4E65818A
:10425000A68089E09FE10E948F056A2D89E09FE199
:104260000E948F0501591B4E0E0D1F1DF801E752CC
:10427000FB4F608189E09FE10E948F05F801E751C3
:10428000FB4F608189E09FE10E948F05F801E750B4
:10429000FB4F608189E09FE10E948F05F801E753A1
:1042A000FB4F608189E09FE10E948F050E94FA0C1C
:1042B0005FEFE51AF50A80E1E816F10409F0B9CFDD
:1042C0008091811E8C9D80018D9D100D11240159BE
:1042D0001B4ED8016C9189E09FE10E948F05F80187
:1042E000618189E09FE10E948F05D80113966C914E
:1042F00089E09FE10E948F05F801628189E09FE1DA
:104300000E948F05F801EA53FB4F608189E09FE12D
:104310000E948F05F801E953FB4F608189E09FE11E
:104320000E948F05F801E853FB4F608189E09FE10F
:104330000E948F050E946C026AE070E080E090E0CD
:104340000E94DC040E94FA0C2B2D30E0AAE0B0E0C1
:104350000E947B3D6B017C01FFEFCF1ADF0AEF0A61
:10436000FF0AF7E0CC0CDD1CEE1CFF1CFA95D1F720
:1043700010E000E0C701B6010E948209580128E060
:1043800022962FAF2297912C812C1501E4E0220C6C
:10439000331CEA95E1F78091811E49E055E0849F46
:1043A000F001859FF00D1124E20DF31DE80DF91DBC
:1043B000EC54FB4E608189E09FE10E948F055FEF26
:1043C000851A950A80E18816910429F70E94FA0C53
:1043D00022969FAD2297915022969FAF2297AFEFE2
:1043E000AA1ABA0A9111CFCF0E946C026AE070E05B
:1043F00080E090E00E94DC04B0E8CB0ED11CE11C10
:10440000F11C085F1F4F0031110509F0B3CFC30144
:10441000B20160587B4F8F4F9F4F0E94820910E07E
:1044200000E079E0E72E75E0F72E8091811E8E9DE9
:10443000F0018F9DF00D1124E00FF11FEC54F74EA9
:10444000608189E09FE10E948F050F5F1F4F003858
:10445000110559F70E94FA0C0E946C026AE070E0A4
:1044600080E090E00E94DC040E94CC0C80915B0B09
:10447000882319F081E080937701809178019091F1
:104480007901059709F068C00091CE0A1091CF0A12
:104490007090A01E8091FE0A9091FF0A2BE1C22E1F
:1044A00029E0D22EF60150E040E071E0812C912C01
:1044B000540183946BECE62E69E0F62E1382D8014A
:1044C000042E02C0B695A7950A94E2F76A2F617090
:1044D00060832181621719F12281211120C0A0FF80
:1044E0001EC0738326812F5F2683772009F44EC078
:1044F000D501C401042E04C0880F991FAA1FBB1F39
:104500000A94D2F7809590952BE139E0D90116965F
:104510007C93255F3F4FE216F306C1F71682618355
:104520004F5F5F4F3B964031510541F69093FF0A34
:104530008093FE0A8091980A882371F01092FF0AF6
:104540001092FE0A8BEC99E0F6011682FBE0CF0E8A
:10455000D11C8C159D05C1F7C45BDF4F0FB6F894D5
:10456000DEBF0FBECDBFDF91CF911F910F91FF90A6
:10457000EF90DF90CF90BF90AF909F908F907F9003
:104580006F905F904F903F902F900895213091F061
:10459000223029F6168214012501042E04C0220CB3
:1045A000331C441C551C0A94D2F720943094822169
:1045B0009321B5CF14012501042E04C0220C331C15
:1045C000441C551C0A94D2F782299329A8CF5F92E4
:1045D0006F927F928F929F92AF92BF92CF92DF9213
:1045E000EF92FF920F931F93CF93DF938091EE038F
:1045F00021E082278093EE038091840A90E060E3BB
:1046000070E00E94AA3D892B29F4809174018227D1
:10461000809374018091840A20918D1E30E09091E6
:10462000811E49E055E0949FF001959FF00D112403
:10463000E20FF31FE85AF64E608166950E948A3DAC
:10464000911104C02C593E4FF90110828091840AC7
:10465000837039F48091C80085FFFCCF88EF809388
:10466000CE008091921E811109C08091840A8370CE
:1046700009F005C3119A81E08093090A8091620CC8
:10468000882309F4E1C28091840A4091811E50E0A0
:1046900029E035E0429FF001439FF00D529FF00D5D
:1046A0001124E159FB4E2181622F0E948A3D2695FB
:1046B000921305C080910C0A8F5F80930C0A809141
:1046C0000C0A29E035E0429FF001439FF00D529F14
:1046D000F00D1124E159FB4E9081981710F41092BF
:1046E0000C0A1092010B1092000BD0E0C0E019E010
:1046F000E12E15E0F12E552453948091840A4091C7
:10470000811E50E04E9DF0014F9DF00D5E9DF00D1D
:104710001124EC0FFD1FE85AF64EA0816A2F0E946B
:104720008A3D911104C0FE01E252FC4F50828091FB
:10473000840A8E01035E154FF80190814E9D900111
:104740004F9D300D5E9D300D112421593B4E2C0F95
:104750003D1FA90147505B4FFA0140814150550B65
:10476000440F551FFA01E90FF11DEE0FFF1FE6552B
:10477000FE4F40815181840F952F911D6A2F70E06B
:104780000E94AA3D892B09F057C0FE01E252FC4F5E
:104790008081882309F450C01082F801808185252A
:1047A0008083FE01EC59FE4F5082F901E753FB4F25
:1047B00080818E01000F111F813009F474C208F44A
:1047C00068C2823009F47AC2833009F49EC28091B3
:1047D000811E90E0CC3041F1FE01E25FF44F408158
:1047E0002091000B3091010B8E9DF0018F9DF00DFB
:1047F0009E9DF00D1124E00FF11FE159FB4E8581C4
:10480000968102C0969587954A95E2F7817099271F
:104810000C2E02C0880F991F0A94E2F7822B932B6B
:104820009093010B8093000BF801EE5EFE4F8081A8
:1048300091810196918380832196C031D10509F041
:104840005CCF8091840A2091811E30E0E091040ABF
:1048500069E075E0269FA001279F500D369F500DFF
:10486000112441595B4EE40FF52FF11DE751FB4F29
:1048700060810E948A3D911109C08091320190911E
:104880003301019690933301809332018091840A21
:1048900049E055E0249FF001259FF00D349FF00D75
:1048A0001124E159FB4E61810E948A3D911120C083
:1048B00020913201309133014091000B5091010B56
:1048C000215031098091190990911A0902C09695D9
:1048D00087952A95E2F765E0880F991F6A95E1F7B9
:1048E00080729927842B952B9093010B8093000B5A
:1048F0002091000B3091010B8091FE0A9091FF0AEC
:1049000080959095822393239093010B8093000BC5
:104910008091000B9091010B892B09F411C18091BA
:10492000000B9091010B96FF04C0129881E08093D8
:10493000B91E8091000B9091010B97FD139A0E9474
:104940009A08CAEFD1E05E0108E010E059E0E52ED8
:1049500055E0F52E82B18F7182B982B1F5012191B6
:104960005F01F0E22F9F90011124822B82B9809188
:10497000811EF801E25FF44FE0818E9D90018F9DD2
:10498000300D1124C801B4E0880F991FBA95E1F7E2
:10499000820F931F81599B4EE80FF92FF11DEB5B9E
:1049A000FF4F908180911A0B4091FF0AC42EC29450
:1049B0004FE0C422D12CA601417055274095509557
:1049C000F901E159FB4E258D368D02C036952795AC
:1049D0008A95E2F7242380E020FF05C0E853FB4FCF
:1049E0008081880F880F890F0E945E0A85E090E021
:1049F0000E94AC040F5F1F4F0C30110509F0AACFC5
:104A00000E94A408F12CE12C09E015E082B18F711D
:104A100082B982B1299140E2249F90011124822B16
:104A200082B98091811EF701E25FF44FA081809FDF
:104A3000F001819FF00D1124C70174E0880F991FC8
:104A40007A95E1F78E0F9F1F81599B4EA80FB92FC2
:104A5000B11DAB5BBF4F9C9180911A0B2091FF0A57
:104A6000622E6294AFE06A22712C93012170332789
:104A700020953095E159FB4E458D568D02C05695D7
:104A800047958A95E2F7242380E020FF05C0E8538C
:104A9000FB4F8081880F880F890F0E945E0A85E096
:104AA00090E00E94AC048FEFE81AF80A98E0E9164B
:104AB000F10409F0ABCF8091000B9091010B0E94A3
:104AC000970A80ED97E00E94AC040E94870A8091CB
:104AD000000B9091010B95FF21C00E940309E0910A
:104AE0000B0A4091811E29E035E0429FC001439F9F
:104AF000900D112481599B4EE80FF92FF11DEB5BAE
:104B0000FB4F60818091941E0E949A0781E0809300
:104B1000FF0380910B0A8F5F80930B0A80910B0A31
:104B20009091811E29E035E0929FF001939FF00D56
:104B30001124EC5CF64E9081981710F410920B0A39
:104B40002091811E30E089E095E0289FA001299FF7
:104B5000500D389F500D112490E080E0FC01EE0FC5
:104B6000FF1FEE5EFE4F60817181DA01A80FB91F51
:104B7000A85BB64EAC91A617170614F411821082EA
:104B800001968031910551F7809132019091330166
:104B900049E055E0249FF001259FF00D349FF00D72
:104BA0001124E159FB4E2081281719069CF581E05C
:104BB0008093D2098093030A10923301109232013C
:104BC0008091CB09882331F180917801909179010E
:104BD000029701F51092CB0983E080937601109241
:104BE0006D140E94030990E080E0FC01EE0FFF1FAE
:104BF000EE5EFE4F11821082019680319105A9F779
:104C00008091811E91E089278093811E0E94500827
:104C10000E94F1078091840A9091811E29E035E07D
:104C2000929FF001939FF00D1124E159FB4E618199
:104C30000E948A3D943041F4809132019091330179
:104C4000892B11F41092D2098091840A91E0980F77
:104C50009093840A803618F081E08093840ADF9173
:104C6000CF911F910F91FF90EF90DF90CF90BF9069
:104C7000AF909F908F907F906F905F9008958091FC
:104C8000840A8370823009F0F9CC11981092090AD5
:104C9000F5CCF801EE5EFE4F80819181FE01E25F6E
:104CA000F44F808394CDF801EE5EFE4F4081518138
:104CB00027523B4FF9018081841BF0CFDE01A25FB8
:104CC000B44F4C9127523B4FF9018081FE01E35FC5
:104CD000F54F9081481302C091110DC02C912223F1
:104CE00061F09081F801EE5EFE4F992351F08081D2
:104CF00091818C936CCD1082F4CF9111F2CF5082C0
:104D0000F0CF20813181821BF4CF27523B4FF90134
:104D10008080912CFFEF8F1A9F0A092C000CAA08A3
:104D2000BB080E94C83CA50194010E94273DFE01DA
:104D3000E25FF44F60834BCD119A0E94E7220E94FC
:104D4000E72280ED97E00E94AC040E94E7220E94D7
:104D5000E722119808951F920F920FB60F92112417
:104D60000BB60F922F933F934F935F936F937F9365
:104D70008F939F93AF93BF93EF93FF938FEF9FE139
:104D80000E944603FF91EF91BF91AF919F918F9148
:104D90007F916F915F914F913F912F910F900BBE3B
:104DA0000F900FBE0F901F9018951F920F920FB685
:104DB0000F9211240BB60F922F938F939F93EF9323
:104DC000FF93E0910F20F09110208081E091152059
:104DD000F091162082FD1DC09081809118208F5F78
:104DE0008F7320911920821741F0E0911820F0E094
:104DF000E150F04E958F80931820FF91EF919F9195
:104E00008F912F910F900BBE0F900FBE0F901F90A0
:104E100018958081F2CF1F920F920FB60F92112436
:104E20002F933F938F939F93AF93BF938091710A7A
:104E30009091720AA091730AB091740A3091700A2D
:104E400023E0230F2D3768F126E8230F0296A11DDA
:104E5000B11D2093700A8093710A9093720AA093F7
:104E6000730AB093740A8091750A9091760AA091A2
:104E7000770AB091780A0196A11DB11D8093750A39
:104E80009093760AA093770AB093780ABF91AF9176
:104E90009F918F913F912F910F900FBE0F901F9078
:104EA00018950196A11DB11DD4CF1F920F920FB678
:104EB0000F9211240BB60F922F933F934F935F9352
:104EC0006F937F938F939F93AF93BF93EF93FF93D2
:104ED0008091B900887F803609F44DC008F040C049
:104EE000883209F4A9C028F5803109F49DC0C8F4BE
:104EF000882309F407C1883009F496C0FF91EF9127
:104F0000BF91AF919F918F917F916F915F914F91E1
:104F10003F912F910F900BBE0F900FBE0F901F90DF
:104F20001895883109F488C0803241F78093E41ED7
:104F300014C0803409F4A5C040F48033B9F3883339
:104F4000E9F68093E41E85ECBCC0803509F489C085
:104F5000883509F49EC0883489F60E941A05CECFA0
:104F6000883909F494C038F5883729F050F4883628
:104F700011F0803719F683E08093E61E10926F0AD5
:104F800057C0883809F483C0803919F0803809F097
:104F9000B5CF80916F0A803208F079C0E0916F0A36
:104FA00081E08E0F80936F0A8091BB00F0E0E15B9F
:104FB000F54F80833DC0803B39F0E0F4803A09F43E
:104FC00085C0883A09F09ACF84E08093E61E10925B
:104FD0004E0A10924D0AE0917E0AF0917F0A0995DF
:104FE00080914D0A81110FC081E080934D0A10928B
:104FF0002D0A09C0803C09F4A6CF883C09F4A3CF50
:10500000883B09F07BCFE0914E0A81E08E0F8093C0
:105010004E0AF0E0E35DF54F80818093BB009091F4
:105020004E0A80914D0A31C08091DF1E8093BB00F3
:1050300085EC8093BC0062CF9091E11E8091E01ED0
:105040009817B8F58091E21E9091E31EE091E11E61
:1050500021E02E0F2093E11EE80FF92FF11D808132
:10506000E5CF2091E21E3091E31EE091E11E81E048
:105070008E0F8093E11E8091BB00E20FF32FF11D94
:1050800080839091E11E8091E01E981788F285E858
:10509000D0CF2091E21E3091E31EE091E11E81E02D
:1050A0008E0F8093E11E8091BB00E20FF32FF11D64
:1050B00080838091E51E811150CF81E08093DE1EB8
:1050C00084EA8093BC001092E61E18CF85EC809392
:1050D000BC001092E61E80916F0A803230F4E0919D
:1050E0006F0AF0E0E15BF54F108260916F0A70E0AB
:1050F000E0917C0AF0917D0A8FE49AE00995109284
:105100006F0AFCCE1092E41E28CF1F920F920FB6AA
:105110000F9211240BB60F922F933F934F935F93EF
:105120006F937F938F939F93AF93BF93EF93FF936F
:105130000E94E722FF91EF91BF91AF919F918F91D4
:105140007F916F915F914F913F912F910F900BBE87
:105150000F900FBE0F901F901895EFEFFFE1138295
:10516000128248EE53E060E070E04483558366832A
:1051700077838AE392E09183808385EC90E0958742
:10518000848784EC90E09787868780EC90E0918B11
:10519000808B81EC90E0938B828B82EC90E0958BFE
:1051A000848B86EC90E0978B868B118E128E138EFB
:1051B000148EA9E0BFE113961C921E9212971496CA
:1051C0004D935D936D937C9317978CE492E08D9350
:1051D0009C93F0939D20E0939C20EFE2FFE11182ED
:1051E000108213821282158214821782168211860F
:1051F0001086138612861586148617861686118ADF
:10520000108A138A128A158A148A178A168A118EAE
:10521000108E138E128E158E148E178E168E11A26E
:1052200010A213A212A215A214A217A216A211A6CE
:1052300010A68CE990E293A782A714A615A616A63D
:1052400013AA12AA15AA14AA8FEF9FEF97AB86ABE9
:1052500091AF80AF83E08093691F13AE14AE15AE9B
:1052600016AE1092EE1FEEE6FFE180E8DF011D9220
:105270008A95E9F71092F11F1092F21F1092F31F16
:105280001092F41F1092F51F1092F61F1092F71F44
:105290001092F81F1092F91F1092FA1F1092FB1F24
:1052A0001092FC1F1092FD1F1092FE1FEDE2FFE115
:1052B00080E580831182E5E1FFE1138212828EE5B1
:1052C00092E09183808382E184838FEF858383E101
:1052D000868384E1878385E1808786E1818787E112
:1052E00082871386148615861686178681E00C94AD
:1052F0007F06CF93DF93CDB7DEB7E2970FB6F89472
:10530000DEBF0FBECDBF789484B5836084BD85B504
:10531000836085BD80916E00816080936E0082E025
:1053200080938100809181008160809381008091D1
:1053300080008160809380008091B10084608093C0
:10534000B1008091B00081608093B00080919100A5
:1053500083608093910080919000816080939000A1
:1053600087E880937A001092C10060E08BE10E9490
:105370007B0461E08BE10E944D0460E08CE10E94BF
:105380007B0461E08CE10E944D04039903C081E03D
:105390008093870A049903C081E08093860A84B1D0
:1053A000886184B98AB1806F8AB981B18C6E81B904
:1053B000129A61E088E10E947B0461E089E10E9429
:1053C0007B0460E080E00E947B0460E081E00E945A
:1053D0007B041FB7F8948091790A811127C0EAE70E
:1053E000F1E08491EAE5F1E09491E82FF0E0EE0F2E
:1053F000FF1FE45BFE4FA591B491EC91E92321F4EA
:1054000061E084E00E944D0461E084E00E947B043E
:105410008CB580618CBD8CB580648CBD61E087E00B
:105420000E947B0461E085E00E947B048091790A00
:105430008F5F8093790A1FBF8FB7F89492E09093A3
:105440007B0A8FBF1092081F1092071F1092BB1E7D
:105450001092DD1E1092E61E81E08093E51E1092F0
:10546000DE1E61E081E10E944D0461E080E10E9466
:105470004D048091B9008E7F8093B9008091B9006E
:105480008D7F8093B90088E48093B80085E4809391
:10549000BC0080ED92E090937F0A80937E0A81EDBC
:1054A00092E090937D0A80937C0A83E19CE023E65E
:1054B0003BE03AAB29ABE9A9FAA916823B96FAABD5
:1054C000E9AB8E179F07B9F71092520C1092350B6B
:1054D0001092470C10929C0A1092A80A82E00E9437
:1054E0007F066CE571E080E00E94260764E571E0CC
:1054F00081E00E9426076CE471E082E00E942607AA
:1055000064E471E083E00E9426076CE371E084E0CC
:105510000E94260764E371E085E00E94260769EF98
:105520007FEF83E090E00E9482090E946C0263E0BA
:1055300070E083E590E00E94820F0E941902082F1C
:105540000E941902182F0E941902412F400F55275F
:10555000551F840F952F911D039709F405C260E034
:1055600080E00E94700681E792E00E94BA0C61E040
:1055700080E00E9470060E94D40C61E080E00E94EE
:10558000700683E892E00E94BA0CA0E8CA2EA4E05C
:10559000DA2EE12CF12C1DA6412C512C3201439422
:1055A000C701B60160587440810991090E948209BF
:1055B00010E160E089E09FE10E948F0560E089E0F2
:1055C0009FE10E948F056FE089E09FE10E948F05B7
:1055D00068E189E09FE10E948F0561E089E09FE139
:1055E0000E948F0560E089E09FE10E948F051150C5
:1055F00001F76FE089E09FE10E948F0568E189E093
:105600009FE10E948F0561E089E09FE10E948F0584
:1056100060E089E09FE10E948F0560E089E09FE102
:105620000E948F0560E089E09FE10E948F050AE1FA
:1056300010E060E089E09FE10E948F0501501109B0
:10564000C1F70E946C026AE070E080E090E00E9486
:10565000DC044601570154E0951AA108B10818AAC4
:105660001FA6C501B4010E948209F8E03F2EE0E1C7
:105670002E2E68E289E09FE10E948F052A94211076
:10568000F8CF3A943110F3CF0E946C026AE070E0D8
:1056900080E090E00E94DC0470E8870E911CA11C61
:1056A000B11C8FA598A9019709F097C14601570130
:1056B00093E0991AA108B10818AA1FA6C501B40160
:1056C0000E94820978E0372E60E1262E60E089E0B2
:1056D0009FE10E948F052A942110F8CF3A9431104F
:1056E000F3CF0E946C026AE070E080E090E00E94DC
:1056F000DC04F0E88F0E911CA11CB11C2FA538A969
:105700002130310509F06EC14601570132E0931A8C
:10571000A108B10818AA1FA6C501B4010E948209F8
:1057200058E0352E40E1242E60E089E09FE10E94A0
:105730008F052A942110F8CF3A943110F3CF0E94AC
:105740006C026AE070E080E090E00E94DC0450E8C7
:10575000850E911CA11CB11C6FA578A96130710543
:1057600009F045C14601570171E0971AA108B10837
:1057700018AA1FA6C501B4010E94820938E0332E81
:1057800020E1222E60E089E09FE10E948F052A94AB
:105790002110F8CF3A943110F3CF0E946C026AE0E6
:1057A00070E080E090E00E94DC0490E8890E911C9B
:1057B000A11CB11CEFA5F8A9319709F01DC1C701C3
:1057C000B6010E948209B12C60E089E09FE10E944D
:1057D0008F05B394F0E8BF12F7CF0E946C026AE025
:1057E00070E080E090E00E94DC048DA586958695AF
:1057F0008695A301920104C0220F331F441F551F39
:105800008A95D2F7C9012091820A3091830A822BAE
:10581000932B9093830A8093820A40E070E060E0CB
:105820000E94B70B3DA53F5F3DA745E0D40EE11CAC
:10583000F11C50E8C51654E8D50652E0E506F1041F
:1058400009F0AECEC12C80E8D82E82E0E82EF12CF3
:10585000412C512C3201439446015701312CC50192
:10586000B4010E948209212C60E089E09FE10E943E
:105870008F05239460E82612F7CF0E946C026AE03D
:1058800070E080E090E00E94DC04339470E8870EC2
:10589000911CA11CB11C88E03812E1CFD301C201D8
:1058A000002E04C0880F991FAA1FBB1F0A94D2F7AD
:1058B0002091800A3091810A822B932B9093810A48
:1058C0008093800A40E070E060E00E94B70B0F5FB9
:1058D0001F4F94E0D90EE11CF11CC114B0ECDB06A3
:1058E000B2E0EB06F10409F0B7CF60E070EC82E0C3
:1058F00090E00E94820960E089E09FE10E948F05AC
:1059000068E789E09FE10E948F0561E089E09FE1FF
:105910000E948F0561E089E09FE10E948F050E944F
:105920006C026AE070E080E090E00E94DC0469EFC5
:105930007FEF83E090E00E94820960E089E09FE1D0
:105940000E948F0561E089E09FE10E948F0562E07F
:1059500089E09FE10E948F050E946C026AE070E07E
:1059600080E090E00E94DC0480912D1F90912E1F1A
:105970000E94440A5C9A80E00E943D0A80E00E94F6
:105980003D0A80E00E943D0A80E00E943D0A80E0DE
:105990000E943D0A8093850A5C980E942C0A80919F
:1059A000850A883071F560E080E00E94700684E925
:1059B00092E00E94BA0C61E080E00E9470060E94B2
:1059C000D40C61E080E00E94700685EA92E00E94BB
:1059D000BA0C8FE70E945E0AFCCF61E070E078AB02
:1059E0006FA73FCEE1E0F0E0F8ABEFA767CE41E074
:1059F00050E058AB4FA790CE81E090E098AB8FA7D6
:105A0000B9CE60E070EC82E090E00E9482090E94D2
:105A10006C0260E482E50E94B30F0E94190291E0DB
:105A2000811101C090E09093921E0E941902992763
:105A30008B3F910510F08AEF90E08E31910510F4C4
:105A40008EE190E09093991E8093981E0E94190217
:105A50009927009709F443C18131910514F080E141
:105A600090E08093941E0E9419029927009709F4F0
:105A700039C18131910514F080E190E08093951E49
:105A80000E94190291E0811101C090E09093911E53
:105A90001092840A109233011092320110929B1ED0
:105AA00010929C1E80E480937C0080917A00806438
:105AB00080937A0080917A0086FDFCCF6091780017
:105AC00070917900072E000C880B990B61157105F8
:105AD0008105910511F00E94173D10929A1E809148
